:020000040800F2
:1000000010070020A50100080F270008C9230008D9
:100010000D270008CD080008812E00080000000010
:10002000000000000000000000000000852900081A
:10003000CF080008000000001127000889290008E7
:10004000BF010008BF010008BF010008BF01000890
:10005000BF010008BF010008BF010008BF01000880
:10006000BF010008BF010008BF010008BF01000870
:10007000BF010008BF010008BF010008BF01000860
:10008000BF010008BF010008BF010008BF01000850
:10009000BF010008BF010008BF010008BF01000840
:1000A000BF010008BF010008BF010008BF01000830
:1000B000BF0100080000000000000000BF010008B0
:1000C000BF0100080000000000000000BF010008A0
:1000D00000000000752E0008BF01000800000000AD
:1000E000BF010008BF010008000000000000000080
:1000F0000000000000000000000000000000000000
:10010000000000000000000000000000BF01000827
:100110000000000000000000BF010008BF0100084F
:10012000BF010008BF010008BF010008BF010008AF
:10013000BF010008000000000000000000000000F7
:10014000BF010008BF010008BF010008BF0100088F
:10015000BF010008BF010008BF010008BF0100087F
:10016000BF010008BF010008BF0100080000000037
:10017000BF010008BF0100080000000000000000EF
:10018000BF010008BF010008BF010008DFF810D060
:1001900000F006FB0048004759440008AFF3008018
:1001A000100700200648804706480047FEE7FEE7A4
:1001B000FEE7FEE7FEE7FEE7FEE7FEE7FEE7FEE717
:1001C0004D2A00088D0100082DE9F05F054600204A
:1001D00092469B4688460646814640241BE02846B8
:1001E00041464746224600F0BEF953465A46C01AD9
:1001F000914110D311461846224600F0A5F92D1A58
:1002000067EB01084F4622460120002100F09CF9CF
:1002100017EB00094E41201EA4F10104DFDC484623
:1002200031462A46434600F000B830BCBDE8C09FC6
:10023000D2B201E000F8012B491EFBD27047002228
:10024000F6E710B513460A4604461946FFF7F0FFD5
:10025000204610BD2DE9FE4F804681EA0300C00F05
:100260000C46009021F0004123F00045B8EB02005D
:10027000A94105D24046214690461C460B460246FF
:1002800023F00040104347D0270DC7F30A00C3F303
:100290000A510290401A019040286BDAC3F3130010
:1002A00040F4801B0098924620B10023D2EB030A51
:1002B00063EB0B0B01985946C0F14002504600F029
:1002C00043F906460D4650465946019A00F05BF93F
:1002D00010EB08006141002487EA115284EAE773B9
:1002E0001A4340D0009A62B3019A012A4FEA07529A
:1002F00015DC001B61EB02014FF0004202EA0752DD
:10030000CDE90042001C41F5801132462B4600F039
:100310005BF903B000F045B840462146F9E7001B01
:1003200061EB0201001C41F5801300185B412018AD
:10033000A2F5001747EB030140EAD570B6196D41ED
:1003400011E06D084FEA360645EAC0754FEA0752DC
:10035000001B61EB0201001C41F5801149084FEAC6
:1003600030000019514132462B4603B000F01CB852
:1003700000F01BB90098012240000023D0EB0202DC
:1003800063EBE073009821464FEAE074B8EB00009D
:1003900061EB0401E9E783F000435BE781F0004192
:1003A00058E730BCBDE8C08F30BCBDE8C04FFFF798
:1003B000DFBF2DE9FE4F81EA030404F0004421F081
:1003C000004100944FF0000B23F0004350EA010479
:1003D0005ED052EA03045BD0C3F30A54C1F30A555A
:1003E0002C44A4F2F3340194A0FB0254C1F3130192
:1003F00041F48011C3F3130343F4801301FB02445F
:1004000000FB034E840A970A44EA815447EA835763
:10041000A4FB076802958D0A05FB07854FEA932C1C
:1004200004FB0C542705029D4FEA065847EA16378D
:10043000B5EB08056EEB070C870E920E47EA8117A5
:1004400042EA8312A7FB0201B6EB0B0164EB000446
:100450002B0D43EA0C335E1844EB1C50DA46514630
:10046000E7FB0201C5F313044FEA0B3343EA1453CD
:100470004FEA0432019C43EA0603A4F10C040294FF
:10048000009CCDE900B400F09FF803B000F003B881
:1004900000200146F9E730BCBDE8C08F0EB5C10FA2
:1004A00080EAE0700844CA07002140F233438DE837
:1004B0000E000A460B4600F087F803B000BD0EB5EB
:1004C00040F2334102910021CDE900110A460B466A
:1004D00000F07AF803B000BD70B5C1F30A5201F024
:1004E00000450024C1F3130140F2FF3341F48011B1
:1004F0009A4201DA002070BD40F233439A42A2F2E0
:10050000334203DC524200F02EF800E090402C43CE
:10051000F1D0404270BDC1F30A5210B5C1F31301CE
:1005200040F2FF3341F480119A4201DA002010BDFD
:1005300040F233439A42A2F2334203DC524200F0CB
:1005400012F810BD904010BD202A04DB203A00FABA
:1005500002F1002070479140C2F1200320FA03F31A
:10056000194390407047202A04DB203A21FA02F018
:100570000021704721FA02F3D040C2F120029140DD
:10058000084319467047202A06DBCB17203A41FA68
:1005900002F043EAE07306E041FA02F3D040C2F110
:1005A0002002914008431946704710B5141E73F19C
:1005B000000408DA401C41F1000192185B411A4323
:1005C00001D120F0010010BD2DE9F04D92469B466F
:1005D00011B1B1FA81F202E0B0FA80F22032904615
:1005E000FFF7B2FF04460F4640EA0A0041EA0B015A
:1005F00053465A46084313D0114653EA010019D016
:10060000C8F140025046FFF7AEFF05460E46504681
:1006100059464246FFF798FF084305D0012004E001
:1006200020463946BDE8F08D0020054346EAE076D5
:100630002C4337430A986305E40AA0EB0800002224
:10064000FD0A44EA47540A3002D500200146E9E792
:10065000010510196941DDE9084500196941BDE846
:10066000F04DA2E72DE9F04D81EA030404F0004BC0
:1006700021F0004514464FF0000A23F0004150EAF3
:10068000050220D054EA01021DD0C5F30A570246E4
:10069000C5F31303C1F31300C1F30A5640F48015E8
:1006A00043F48013A7EB0608101BD64608F2FD386A
:1006B00073EB050002D308F1010801E092185B41D9
:1006C000B8F1000F03DA00200146BDE8F08D0020EC
:1006D0004FF48011064684460EE0171B73EB0507A6
:1006E00005D3121B63EB050306434CEA010C4908D2
:1006F0004FEA300092185B4150EA0107EDD152EA0F
:10070000030012D082EA040083EA0501084305D001
:10071000101BAB4106D20122002306E000224FF05D
:10072000004302E06FF0010253101AEB06004CEB9D
:10073000085110EB0A0041EB0B01BDE8F04DFFF74B
:1007400034BF70B521F0004303430CD0C1F30A5508
:100750000024D5EB040564EB0403D617AD1AB341AE
:1007600002DB0020014670BD201841EB025170BD34
:1007700030B5041E71F1000404DB4FF00044404228
:1007800064EB0101141E73F1000405DB1C464FF0FD
:100790000043524263EB0403994208BF904230BDCC
:1007A000064C074D06E0E06840F0010394E80700BE
:1007B00098471034AC42F6D3FFF7ECFCD047000862
:1007C000F04700082DE9F04D00231A461B1A8A4114
:1007D00003DB00200146BDE8F08DC1F30A52C1F3EE
:1007E000130141F480154FF0000BD10702D100181E
:1007F0006D41521E0027044640F2FF11384601EBBE
:10080000620A3E468046024600204FF48011FFF700
:10081000AAFEC2197141BB1846EB0100B4EB030CF0
:1008200075EB000C04D3E41A65EB000517460E4681
:10083000241908F101006D4180463428E3DDF919DF
:1008400046EB0600091BA84103D24FF0FF321346C6
:1008500001E0002213461BEB070046EB0A51BDE8FE
:10086000F04DFFF7A2BE000030B5041E71F1000488
:1008700004DB4FF00044404264EB0101141E73F1AD
:10088000000405DB1C464FF00043524263EB0403B7
:100890008B4208BF824230BD70B50A23062207A1F1
:1008A000084801F035FD084D01242021284600F0BC
:1008B00076FA641C322CF8DD70BD00004C45440D06
:1008C0000A0000008C00002000040048FEE770478A
:1008D00030B50A232DED068B87B008228DA18F48F5
:1008E00001F016FD8EA10A23D1E90001CDE9010135
:1008F0008A481A46D0214C3800F014FB58B98A4D6A
:1009000001240821284600F04AFAFA2000F064F990
:10091000641C0A2CF5DD11208DF80C007F480025A1
:100920000A248DF80D50022303AAD0214C380094DC
:1009300000F024FC12208DF8100078488DF811503A
:10094000022304AAD0214C38009400F017FC0E209A
:100950008DF814003C208DF815007048022305AA7C
:10096000D0214C38009400F009FC0F208DF81800BD
:100970008C208DF819006948022306AAD0214C3832
:10098000009400F0FBFB6548012303AAD0214C38FA
:10099000009400F0F3FB614801230DF10D02D12119
:1009A0004C38009400F054FB9DF80D00000903F052
:1009B00044FD8DF804009DF80D0000F00F0003F0D9
:1009C0003CFD8DF805005548012304AAD0214C3880
:1009D000009400F0D3FB514801230DF11102D12105
:1009E0004C38009400F034FB9DF81100000903F02E
:1009F00024FD8DF807009DF8110000F00F0003F0B2
:100A00001CFD8DF808000A23072201A9434801F0C4
:100A10007FFC9DF80800FFF752FD0B4643EC100BDE
:100A2000B0EE408AF0EE608A41EC100B02F050FC10
:100A300051EC100BFFF750FD401CFFF72FFD9FED11
:100A40003B9B41EC110BB0EE490AF0EE690A02F053
:100A5000D7FCB0EE40AAF0EE60AA9DF80700FFF7C1
:100A60002EFD53EC1A2BFFF7A4FC53EC182BFFF7C9
:100A7000F1FBFFF750FDC4B29DF80500FFF71FFD25
:100A80000B4643EC100BB0EE408AF0EE608A41EC6E
:100A9000100B02F01DFC51EC100BFFF71DFD401C6C
:100AA000FFF7FCFC41EC110BB0EE490AF0EE690ACD
:100AB00002F0A6FCB0EE409AF0EE609A9DF80400B9
:100AC000FFF7FDFC53EC192BFFF773FC53EC182BCD
:100AD000FFF7C0FBFFF71FFDC1B2204603F01EFC6D
:100AE0001448D0ED020AF8EEE00AB4EEE00AF1EEA6
:100AF00010FA03DD0121104801F00CFE0D480F49EA
:100B000001226423143003F071FC07B0BDEC068BA6
:100B100030BD0000474554544D0D0A008C000020A4
:100B200000002E00000D0A00000400480000000034
:100B3000000024400000002099080008D1080008A7
:100B400010B590F825100022022905D00421C163B8
:100B500080F82420012010BD01680B6823F00E03EB
:100B60000B6001680B6823F001030B6090F84410E0
:100B7000046C01F01C03012101FA03F3636080F8A7
:100B8000251080F82420104610BD10B590F82510CF
:100B90000024022903D00421C16301241AE0016862
:100BA0000A6822F00E020A6001680A6822F0010257
:100BB0000A6090F84410036C01F01C02012101FA54
:100BC00002F25A6080F82510002180F82410816B11
:100BD00001B18847204610BD70B5044600F0ECF81E
:100BE0000546601C02D004480078044400F0E4F894
:100BF000401BA042FAD370BD200000202DE9FC4F1D
:100C0000DFF880A1002301250AF1040B03244FF033
:100C10000F0C0BF1040EAEE005FA03F632406FD074
:100C20004F68012F05D0022F03D0112F01D0122FB2
:100C300017D1D0F808905F0004FA07F829EA0809EC
:100C40000097D1F80C8008FA07F848EA0908C0F8BC
:100C500008804768B7430E79C6F300169E403E43AE
:100C60004660C6684FEA430804FA08F7BE43019796
:100C70008F6807FA08F73743C7604E68022E01D025
:100C8000122E13D1DE0800EB86060096366A5F0747
:100C9000FF0E0CFA07F926EA0906D1F8109009FAB6
:100CA00007F949EA0609009EC6F820900768019EE8
:100CB000B7430E7906F0030606FA08F63E430660CF
:100CC0004E68F60056D5304E376E47F0010737664E
:100CD000366E23F0030706F0010600962B4E3E44C5
:100CE000B146B6689F074FEA17780CFA08F7BE437B
:100CF000B0F1904F05D0264FB84204D1012708E04B
:100D000038E0002705E0234FB84201D1022700E078
:100D1000072707FA08F73743C9F80870DAF80060C0
:100D20005746D1F8048096435FEAC83800D5164389
:100D30003E60DBF800605F46D1F8048096435FEACE
:100D4000883800D516433E60DEF800607746D1F85B
:100D5000048096435FEAC82800D516433E60094FD9
:100D60000C373E68D1F8048096435FEA882800D5A6
:100D700016433E605B1C0A6832FA03F67FF44CAF00
:100D800000F00AB8000401400010024000000140D9
:100D900000040048000800481CBCBDE8E08F426920
:100DA00021EA02030A4043EA0241816170470AB125
:100DB0008161704781627047014880687047000018
:100DC0002000002090F84120202A24D190F84020D3
:100DD000012A20D0012280F84020242280F84120DE
:100DE0000268136823F0010313600268136823F498
:100DF00080531360026813680B43136001680A682C
:100E000042F001020A60202180F84110002180F8A0
:100E10004010084670470220704790F84120202A71
:100E200022D190F84020012A1ED0012280F84020D3
:100E3000242280F841200268136823F00103136024
:100E40000268136823F4706343EA012111600168AA
:100E50000A6842F001020A60202180F84110002156
:100E600080F84010084670470220704770B50400B3
:100E700004D094F84100002510B106E0012070BDB7
:100E800084F84050204600F00FFA242084F84100F6
:100E90002068016821F0010101606068216820F08C
:100EA000706008612068816821F400418160E06819
:100EB0000128A06807D040F4044021688860E068F9
:100EC000022803D006E040F40040F6E721684FF422
:100ED0000060486020684168114A11434160206801
:100EE000C16821F40041C160D4E904010843A1694B
:100EF00040EA01202168C860D4E90701084321685D
:100F000008602068016841F00101016065642020EB
:100F100084F84100256384F84250002070BD000031
:100F2000008000022DE9FC4700260446019690F857
:100F300041001F469246894620287ED1206880695C
:100F4000C043000479D594F84000012875D00120F1
:100F500084F84000242084F8410066644FF02008A3
:100F6000E068012809D029F4544040F42050216859
:100F70004860FFF721FF05460DE0314949EA0100CD
:100F800030490840F3E7781C05D0FFF715FF401BF8
:100F9000B84219D8C7B1216888698969C0F340107F
:100FA000C1F300110843EED0206880693B46C0437E
:100FB000C0064FF000024FF020012046009517D5E3
:100FC00001F06CFA68BB09E084F8418054F8440FE2
:100FD00040F0200044F80409267022E02168C1F89E
:100FE0001C8084F8418084F84060002000F02CB818
:100FF00001F054FAA8B921681020C8612168C1F82D
:101000001C800198504512D12068416841F480410C
:1010100041603B46002220212046009501F03EFA27
:1010200010B10120E2E708E02168C1F81C800198B6
:10103000401C0190504593D3C6E70220D6E700003C
:1010400000200002FF2300020CBCBDE8F087000076
:101050002DE9F84F044690F84100DDF828A01F461E
:1010600090468B4620287ED194F8400001287AD003
:10107000012084F84000FFF79FFE06460122009001
:101080001923D103204601F009FAE0BB222084F89D
:101090004100102084F8420000256564C4F82480D3
:1010A00067856563618D3148FF274FF080784FF089
:1010B0000079FF2903D927853A46009039E0618DF0
:1010C000218500903AE05946204601F0D1F913E01D
:1010D00001F010FAB8B92068406A616A0870606A65
:1010E000401C6062208D401E80B22085618D491EAB
:1010F0006185618D01B168B1608D3246002851462D
:101100002046E5D100E002E001F036FAD0B101203E
:1011100000F030B85346002280212046009601F0AE
:10112000BDF90028F3D1608DFF2804D927853A4600
:1011300000954346C7E7608D2085009594F82820E8
:101140004B46C0E721682020C86121684A68084BE7
:101150001A404A6084F8410084F8425084F84050B4
:101160000020D5E7FFE70220D2E70000002400803E
:1011700000E800FE18BCBDE8E08F00002DE9F84F44
:10118000044690F84100DDF828A01F4690468B46A3
:1011900020287ED194F8400001287AD0012084F8DC
:1011A0004000FFF709FE0646012200901923D103F3
:1011B000204601F073F9E0BB212084F841001020A3
:1011C00084F8420000256564C4F82480678565635F
:1011D000618D3148FF274FF080784FF00079FF296B
:1011E00003D927853A46009039E0618D218500902A
:1011F0003AE05946204601F03BF913E001F0E2F9EC
:10120000B8B9606A216800788862606A401C6062D0
:10121000608D401E6085208D401E80B22085618DCE
:1012200001B168B1608D3246002851462046E5D1B3
:1012300000E002E001F0A0F9D0B1012000F030B8E8
:101240005346002280212046009601F027F900280D
:10125000F3D1608DFF2804D927853A46009543468F
:10126000C7E7608D2085009594F828204B46C0E79D
:1012700021682020C86121684A68084B1A404A60EA
:1012800084F8410084F8425084F840500020D5E7AB
:10129000FFE70220D2E700000020008000E800FE07
:1012A00018BCBDE8E08F000010B586B004461421DC
:1012B0006846FEF7C4FF1249206888421ED1114CCF
:1012C000E06C40F00200E064E06C694600F002006F
:1012D0000590C02000901220019001200290032070
:1012E0000390042004900848FFF788FCA06D40F4A8
:1012F0000010A065A06D00F40010059006B010BDB0
:101300000054004000100240000400480248816878
:1013100002781144816070472000002010B500243D
:10132000032000F071F8002000F008F808B1012453
:1013300001E000F025F8204610BD000070B50E4E0B
:1013400005460024307898B14FF47A71B1FBF0F083
:101350000A490968B1FBF0F000F0B6FD40B9102D64
:1013600006D200222946501E00F02EF8756000E0DB
:101370000124204670BD0000200000202C00002029
:10138000094808B5016E41F001010166016E01F0E6
:1013900001010091816D41F080518165806D00F007
:1013A0008050009008BD000000100240002809DBBA
:1013B00000F01F02012191404009800000F1E0206F
:1013C000C0F8001170470000F0B40E4B1B680C46CB
:1013D000C3F30223C3F10705042D00D90425191D09
:1013E000072901D2002300E0DB1E012606FA05F1E1
:1013F000491E214099409E40761E16403143F0BC64
:1014000001F060BD0CED00E0064900F0070208683D
:101410004FF6FF03184040EA0220034A10430860D9
:10142000704700000CED00E00000FA051649B0F529
:10143000007F0868C0F3412009D0022805D0086861
:1014400020F4C06040F480600860002070470128EC
:10145000FBD0086820F4C06040F4007008600B48BE
:101460003222006850430A4AB0FBF2F0401C00E010
:10147000401E4A69520501D50028F9D14869400546
:10148000E3D5032070470000007000402C000020CE
:1014900040420F000248006800F4C060704700003E
:1014A000007000400248016841F48071016070479B
:1014B000007000400248016841F00401016070477B
:1014C000001002402DE9F84F0446002700889C4D8B
:1014D0003E46000515D5E06B60B1B0F5000F04D0B5
:1014E000B0F5400F2BD001270AE0E86840F48030C7
:1014F000E86024E00021201D01F014F907001ED04F
:101500003E462068800338D5A86D4FF00008C00023
:1015100009D4A86D40F08050A865A86D4FF001086F
:1015200000F080500090DFF81CA2DAF8001041F4BF
:101530008071CAF80010FFF73FFC814610E0D5F833
:101540008800E16B20F440000843C5F88800D8E724
:10155000FFF732FCA0EB0900022801D9032704E0C1
:10156000DAF80000C005F3D5EFB33E46B8F1000F3E
:1015700003D0A86D20F08050A8652078C00707D060
:10158000D5F88800216A20F003000843C5F88800D8
:101590002078800707D5D5F88800616A20F00C0014
:1015A0000843C5F888002078800607D5D5F888005C
:1015B000A16A20F440600843C5F8880020888005AF
:1015C00007D5D5F88800616B20F440200843C5F8A2
:1015D00088002088400509D5D5F88800A16B20F443
:1015E0004010084300E02EE0C5F88800207840064F
:1015F00007D5D5F88800E16A20F440500843C5F8C3
:1016000088002088C00507D5D5F88800216B20F414
:1016100040300843C5F8880020884FF000678004F8
:101620004FF080684ED5D5F88800216C20F04060DE
:101630000843C5F88800206CB8423BD1E86840F404
:101640008010E8603EE0D5F8900010F4407014D0AF
:10165000216D814211D0D5F89000D5F8901020F47A
:10166000407041F48031C5F89010D5F8901021F405
:101670008031C5F89010C5F89000C00711D0FFF771
:101680009BFB074641F2883907E000BFFFF794FB58
:10169000C11B494501D9032668E7D5F890008007AA
:1016A000F4D5D5F89000216D20F440700843C5F8BA
:1016B00090005BE7404505D10121201D01F032F883
:1016C00000B106462068400317D5D5F88800616C44
:1016D00020F040600843C5F88800606CB84204D12F
:1016E000E86840F48010E86007E0404505D101213A
:1016F000201D01F017F800B106462088400411D5DE
:10170000D5F88800A16C20F040500843C5F8880047
:10171000A06CB0F1805F05D10221201D01F002F81C
:1017200000B106462088000406D555F8880FE16C04
:1017300020F0804008432860304600F005B80000E3
:10174000001002400070004018BCBDE8E08F0000AF
:101750002DE9F0470F46050058D0404E306800F0A4
:101760000700B84209D2306820F0070038433060E3
:10177000306800F00700B84248D12878384CC007DC
:101780002CD06868032811D0022812D0216898B1A3
:10179000490500293ADAA16821F003010143A1605B
:1017A000FFF70AFB804641F2883910E02168890181
:1017B000EFE721688903ECE78907EAE7FFF7FCFA1E
:1017C000A0EB0801494502D90320BDE8F087A068D5
:1017D000696800F00C00B0EB810FEFD1287880072A
:1017E00005D5A068A96820F0F0000843A060306823
:1017F00000F00700B8420BD9306820F007003843EA
:101800003060306800F00700B84201D00120DCE70A
:101810002878400705D5A068E96820F4E06008430F
:10182000A0602878000706D5A068296920F46050D8
:1018300040EAC100A06000F03FF8A168094AC1F386
:101840000311515C01F01F01C840074908600748B7
:101850000068BDE8F047FFF771BD000000200240BE
:1018600000100240BC4600082C000020240000208C
:101870000548064900688968054AC1F30221515CA0
:1018800001F01F01C84070472C00002000100240EA
:10189000FC4600080548064900688968054AC1F306
:1018A000C221515C01F01F01C84070472C0000208C
:1018B00000100240FC46000870B525490023184678
:1018C0008A68CC6812F00C0204F00306214C4FEA3F
:1018D000640509D00C2A05D0042A32D0082A00D188
:1018E000284670BD012E10D10B681B0704D4D1F817
:1018F0009430C3F3032302E00B68C3F30313164EC3
:1019000056F82330DAB10C2AEBD1C86800F0030096
:10191000022818D0032818D01846CA68CB68C2F32A
:101920000212C3F306234343521CB3FBF2F2C8680E
:10193000C0F34160401C4000B2FBF0F070BD18469F
:1019400070BD204670BD2046E7E72846E5E7000069
:10195000001002400024F400CC4600082DE9F843B2
:1019600004006FD0FE4DA86800F00C06E86800F097
:1019700003072078C00664D576B10C2E01D1012F63
:101980000AD0A069002828687AD040F001002860B9
:10199000FFF712FA80465DE02868800702D5A0694B
:1019A0000028DED0216A2868000703D5286800F0E7
:1019B000F00004E0D5F89400F02202EA1010814211
:1019C00016D9084600F044FF00283BD1286840F0B3
:1019D000080028602868216A20F0F0000843286089
:1019E0006868E16920F47F4040EA0120686016E001
:1019F000286840F0080028602868216A20F0F0007C
:101A0000084328606868E16920F47F4040EA0120CB
:101A1000686026B9206A00F01BFF0028D5D1FFF7C7
:101A20004BFFA968CF4AC1F30311515C01F01F01BC
:101A3000C840CD490860CD480068FFF77FFC00280A
:101A40007ED12EE0CAE000BFFFF7B6F9A0EB080098
:101A5000022876D828688007F6D5286840F0080064
:101A600028602868216A20F0F00008432860686830
:101A7000E16920F47F4040EA0120686011E0FFE75F
:101A800020F001002860FFF797F9804606E000BFCC
:101A9000FFF792F9A0EB08000228DAD8286880073F
:101AA000F6D42078C00740D0082E18D00C2E01D1D3
:101AB000032F14D06068B0F5803F17D0B0F5A02F89
:101AC000286817D020F480302860286820F480200F
:101AD00028606068E0B1FFF76FF9804614E028687D
:101AE000800322D56068002878D01EE0286840F482
:101AF0008030EDE740F480202860F7E7FFF75CF9DD
:101B0000A0EB08006428A4D828688003F6D50CE070
:101B1000FFF752F9804605E0FFF74EF9A0EB080009
:101B2000642896D828688003F6D4207880073BD5AF
:101B3000042E11D00C2E01D1022F0DD0E06801E04F
:101B4000B6E1FFE0002828681ED040F480702860CD
:101B5000FFF732F907460CE0286840050CD5E0682D
:101B60000028C1D008E000BFFFF726F9C01B0228FB
:101B700093D828684005F7D56868217C20F0F85094
:101B800040EA016068600FE020F480702860FFF791
:101B900013F9074605E000BFFFF70EF9C01B022846
:101BA000B1D828684005F7D42078000729D56069A6
:101BB0000028D5F8940012D040F00100C5F8940038
:101BC000FFF7FAF8074604E0FFF7F6F8C01B022813
:101BD00099D8D5F894008007F6D512E02BE120F0D3
:101BE0000100C5F89400FFF7E7F8074605E000BFDD
:101BF000FFF7E2F8C01B022885D8D5F894008007CB
:101C0000F6D42078400766D5A86D0027C00008D418
:101C1000A86D40F08050A865A86D012700F08050A5
:101C2000009053480168C90512D40168814641F407
:101C300080710160FFF7C0F8804605E0FFF7BCF84F
:101C4000A0EB080002287DD8D9F80000C005F5D522
:101C5000A068012816D00528D5F8900017D020F0EC
:101C60000100C5F89000D5F8900020F0040000BFF6
:101C7000C5F89000A06841F28839C0B1FFF79CF820
:101C800080460FE0D5F8900040F00100F0E740F00A
:101C90000400C5F89000F5E7FFF78EF8A0EB080107
:101CA00049454FD8D5F890008007F5D50EE0FFF7ED
:101CB00083F8804606E000BFFFF77EF8A0EB08013E
:101CC00049453FD8D5F890008007F5D41FB1A86DDD
:101CD00020F08050A8652078800628D5606A00280A
:101CE000D5F8980012D040F00100C5F89800FFF731
:101CF00063F8074605E000BFFFF75EF8C01B022847
:101D000020D8D5F898008007F6D510E020F0010023
:101D1000C5F89800FFF750F8074604E0FFF74CF8C5
:101D2000C01B02280ED8D5F898008007F6D4A06A08
:101D3000A8B1022824D00C2E7DD0286820F0807015
:101D4000286000E0B3E02868000103D4E86820F0D0
:101D50000300E860E86807490840E8600CE09FE09D
:101D600000100240BC4600082C0000202400002087
:101D700000700040FFFFEEFEFFF71EF8044699E0FA
:101D8000E868E26A00F00301914226D1216B00F07D
:101D900070020901103991421FD1626B00F4FE41BB
:101DA000B1EB022F19D194F8382000F07841B1EB53
:101DB000C26F12D1A18F00F4C00249084905A1F5F4
:101DC0000011914209D194F8401000F0C060490818
:101DD0004906A1F1007181424BD00C2E6FD02868CA
:101DE00040016CD4286820F080702860FEF7E4FF82
:101DF000064604E0FEF7E0FF801B022857D828685B
:101E00008001F7D4F4E90B016FF00F0202EB01112E
:101E10000843218A5204490802EB4151A26841EA71
:101E200002210843217D4FF07E42490802EB4161C7
:101E30000843217B00E042E040EAC160E968214AB2
:101E400011400843E860286840F080702860E86826
:101E500040F08070E860FEF7AFFF044605E000BF89
:101E6000FEF7AAFF001B022821D828688001F7D5B9
:101E700023E02868800120D4286840F08070286022
:101E8000E86840F08070E860FEF796FF044604E0E2
:101E9000FEF792FF001B022809D828688001F7D5B9
:101EA0000BE000BFFEF788FF001B022802D90320C9
:101EB000BDE8F88328688001F4D40020F8E7012009
:101EC000F6E700008C809D0110B5401EB0F1807FC8
:101ED00001D3012010BD4FF0E02460610F21601795
:101EE00000F0F0FF0020A06107202061002010BD5D
:101EF00070477047704700002DE9F04102680446C2
:101F0000D0691168936840F60F0528424FF000052C
:101F100005D1860678D58E0676D5616EF3E0834FBF
:101F200003F001060F4037437ED0C70709D0CF0525
:101F300007D501271762D4F8802042F00102C4F8C7
:101F4000802082070AD5DA0708D0276802223A6281
:101F5000D4F8802042F00402C4F8802042070AD559
:101F6000DA0708D0236804221A62D4F8802042F0ED
:101F70000202C4F8802002070CD501F0200232438F
:101F800008D0236808221A62D4F8802042F00802A0
:101F9000C4F8802002050BD54A0109D523684FF407
:101FA00000621A62D4F8802042F02002C4F8802037
:101FB000D4F88020002A2FD0800605D5880603D5C6
:101FC000616E09B120468847D4F88000216889688D
:101FD000490602D410F0280F20D0204600F0F0FD72
:101FE00020688168490614D5816821F0400181602C
:101FF000206F70B14E498163206FFEF7C6FD002847
:102000000AD0206F816B01E00EE02046BDE8F04170
:1020100008472046FFF76EFFBDE8F0812046FFF736
:1020200069FFC4F88050F7E7276E2026012F59D1A9
:10203000C70657D5CF0655D5102010622268906884
:1020400040062ED5216F086840680004000CE3D0DC
:10205000B4F858308342DFD9A4F85A000868006801
:10206000800617D4106820F48070106020688168A2
:1020700021F0010181602068816821F040018160C8
:10208000E66725662068016821F010010160206F75
:10209000FEF756FDB4F85800B4F85A10401A81B251
:1020A0001CE0B4F85800B4F85A10401A81B2B4F8E1
:1020B0005A000028B0D00029AED0106820F49070EB
:1020C00010602068826822F001028260E66725665F
:1020D00065662068026822F0100202602046FFF761
:1020E00007FF99E7C70209D55B0207D54FF48010B7
:1020F00010622046BDE8F041FFF7FBBE030606D59F
:102100000B0604D5A16E00297FF47FAF84E740065B
:1021100082D5480680D5106820F040001060A66780
:102120002046A56600F04FF976E700002001000484
:10213000AD2B000810B5040002D0A06F10B107E06D
:10214000012010BD002084F87400204600F026F81D
:102150002420A0672068016821F001010160204669
:1021600000F046FD0128ECD0606A10B1204600F076
:102170008BFC2068416821F49041416020688168AF
:1021800021F02A0181602068016841F001010160AD
:102190002046BDE8104000F0DBBC000010B586B062
:1021A000044614216846FEF74AF817492068884219
:1021B00028D11648016E41F480410166016E01F498
:1021C00080410591C16C41F00101C164C06C694658
:1021D00000F0010005904FF4C060009002200190D3
:1021E0000020029003200390072004904FF09040BD
:1021F000FEF704FD002211462520FFF7E5F8252013
:10220000FFF7D4F806B010BD0038014000100240BE
:102210002DE9F84F0446C06F9A4616460D46202811
:1022200070D10DB306B394F8740001286AD0012070
:1022300084F874004FF00008C4F880802221E16720
:10224000C4F860805834FEF7B7FD24F8026B81466D
:1022500024F852694FF4805354F80809FF2198423A
:1022600008D122691AB11CE0012000F04DB840F2FB
:10227000FF1116E07F2290B1B0F1805F14D0A4F876
:102280005C8000BFB4F85C70984201D1206990B1C5
:102290002E46002584F8748007F0FF0825E02669A3
:1022A00036B9A4F85C10EDE7216909B13F21F8E7E0
:1022B000A4F85C20E6E70026ECE74B46002220214C
:1022C0002046CDF800A000F083FD08B10320CCE744
:1022D0002068808C8EB100EA080006F8010B00BF70
:1022E000B4F85A00401EA4F85A00B4F85A00002866
:1022F000E3D12020E0670020B7E7384025F8020B43
:10230000EEE7FFE70220B0E718BCBDE8E08F000071
:102310002DE9F8430446806F1F4616460D462028D7
:102320004FD1CDB1C6B194F87400012849D0012035
:1023300084F874004FF00008C4F880802120A06762
:10234000FEF73AFDA4F850608146A4F85260A068F8
:10235000B0F5805F03D004E00120BDE8F883206978
:1023600028B12E465FF0000584F8748010E0002646
:10237000FAE78021204600F02BFDB8B9C6B116F867
:10238000010B21680885B4F85200401EA4F85200E1
:10239000B4F852004B464FF0000200970028E8D1F5
:1023A0004FF04001204600F013FD30B10320D4E788
:1023B00035F8020BC0F30800E3E72020A0670020F7
:1023C000CBE70220C9E77047FEE701688A69D2437C
:1023D000920701D400228A6200688169C943C90753
:1023E00003D0816941F00101816170472DE9F0411D
:1023F0000446006890460E468069C043C00633D448
:102400000025202720688069C043800615D5701CF0
:10241000F8D0FEF7D1FCA0EB0800B04201D8002EA6
:10242000F0D154F8440F40F0200044F804096770DC
:10243000A57025700120BDE8F08121681020C861D9
:102440002068C7612046FFF7C0FF54F8440B41687D
:10245000064A11404160206840F0040044F8200919
:102460006777A5772577E5E70020E4E700E800FE39
:10247000F0B50568059C68684FF48066064FC1F3A7
:10248000090106EA545641EA02413E431943B0436A
:10249000214308436860F0BDFF63FF032DE9F0416D
:1024A0001D4617460E460446DDF8188008E0681CF5
:1024B00006D0FEF781FCA0EB0800A8420BD855B16E
:1024C0002068806936EA000012D00020B842EED0C1
:1024D0000020BDE8F08154F8440F40F0200044F89B
:1024E0000409202060700020A07020700120F0E717
:1024F0000120EBE72DE9F041002690460F46044607
:10250000202525E0424639462046FFF76FFF78BB7D
:1025100020688069C043800613D420688169C9435C
:10252000490701D4218DC1B9C56154F8440B4168F4
:10253000104A1140416044F820696577A6772677F4
:1025400016E0FEF739FCA0EB0800B84208D83FB10E
:1025500020688069C0434007D4D40020BDE8F081E2
:1025600054F8440F40F0200044F8040965702670C8
:102570000120F3E700E800FE70B516460D4604465C
:102580000DE0324629462046FFF730FF08B1012012
:1025900070BDFEF711FC801BA84207D835B120683A
:1025A0008069C0438006ECD4002070BD54F8440F0D
:1025B00040F0200044F80409202060700020A07042
:1025C0002070E4E770B516460D4604460FE032462B
:1025D00029462046FFF70AFF08B1012070BD681C9C
:1025E00005D0FEF7E9FB801BA84207D835B120686B
:1025F0008069C0438007EAD4002070BD54F8440FBE
:1026000040F0200044F80409202060700020A070F1
:102610002070E2E710B586B014216846FDF70FFE82
:102620001548C16C41F00401C164C16C01F00401A2
:102630000591C16C41F00101C164C16C01F001015F
:102640000591C16C41F00201C164C06C0B4C00F0FB
:1026500002000590002228212046FEF7A8FB282032
:10266000009001200021CDE9010103916946204637
:10267000FEF7C4FA06B010BD001002400004004886
:10268000134810B51149016040F614614160002102
:102690000122C0E90212016141618161C1610162EF
:1026A000FEF7E4FB08B172B6FEE700210848FEF72A
:1026B00089FB08B172B6FEE700210548FEF7ADFBC5
:1026C000002801D072B6FEE710BD000000540040A3
:1026D000400000200C4810B50A4901604FF4E13178
:1026E0004160002181600C22C160C0E90412816157
:1026F000C16101624162FFF71DFD002801D072B681
:10270000FEE710BD003801408C000020FEE7FEE728
:10271000704700000A4601460023014801F066BEEA
:102720000C0000202DE9F041444C05468846E06845
:102730000026810728680DD0E16801F0030181427D
:1027400016D1A8B1E0686968C0F30210401C884245
:102750000ED120E0012804D0022805D0032807D19B
:1027600008E02168890701E021684905002907DBA5
:1027700001265FE02168890302D421684903F5E757
:10278000E1686A686FF00F0321F0730103EB021236
:1027900011430143E160206820F080602060FEF773
:1027A0000BFB074605E000BFFEF706FBC01B022837
:1027B00037D820680001F7D4B8F1000F18D0B8F16D
:1027C000010F1DD0287D4FF07E41400801EB406095
:1027D000A96840EA01202169194A11400843206193
:1027E000206840F080602060FEF7E6FA07461AE0B5
:1027F000A868297B000240EAC1602169114AECE720
:10280000288A1149400801EB4050A96840EA01209C
:1028100021690E4AE1E700BFFEF7CEFAC01B02288D
:1028200001D9032606E020680001F5D52069A969D1
:10283000084320613046BDE8F081000000100240EE
:10284000FF80FFF9FF80FF070000E0FFFF809FFF90
:10285000F8B51C4D06460024A86DC00002D5FEF751
:1028600019FE0DE0A86D40F08050A865A86D00F03D
:1028700080500090FEF70EFEA96D21F08051A965F1
:10288000B0F5007F04D0802E07D94FF003040AE092
:10289000802E08D9A02E01D804E001D1022402E044
:1028A000702E00D101240848016821F0070121435E
:1028B0000160006800F00700A04201D00120F8BDCF
:1028C0000020F8BD001002400020024070B50A232D
:1028D0002DED048B092224A12648FFF719FD0A23B8
:1028E000012225492348FFF793FC0A20FEF774F9DB
:1028F000214C0A230122611C1E48FFF789FC257820
:102900006078303D3038FDF7C9FD0B4643EC100BC5
:10291000B0EE408AF0EE608A41EC100B00F0D8FC7B
:1029200051EC100BFDF7D8FD401CFDF7B7FD41EC55
:10293000110B9FED120B00F063FDB0EE409AF0EE2C
:10294000609A2846FDF7AAFD53EC192BFDF731FDDF
:1029500053EC182BFDF77EFCFDF7BEFD211F8860B0
:10296000BDEC048B70BD00005245414454480D0A33
:10297000000000008C000020040000200000000087
:10298000000024407047000008490868401C0860A7
:10299000322808D100200860054901200870054947
:1029A0000888401C0880FEF7B1BC00001C00002015
:1029B000000000200200002010B5ACB0442115A892
:1029C000FDF73DFC142126A8FDF739FC542168468B
:1029D000FDF735FCFEF766FD1B4850F8901F21F00F
:1029E0001801016014201590012000241790CDE9F2
:1029F0001B0460201D901F9415A8FEF7AFFF08B1BF
:102A000072B6FEE70F20CDE9260428942994002110
:102A100026A82A94FEF79CFE08B172B6FEE7412074
:102A2000009008940B946846FEF74CFD08B172B60E
:102A3000FEE74FF40070FEF7F9FC08B172B6FEE74E
:102A4000FEF738FD2CB010BD001002400B480168A5
:102A500041F4700101600A48016841F00101016020
:102A6000002181600268074B1A4002608214C26034
:102A7000026822F4802202608161704788ED00E0E4
:102A800000100240FFFFF6EA90F82410C90706D0B4
:102A900001684A68836A22F400321A434A6090F857
:102AA0002410890706D501684A68C36A22F4803277
:102AB0001A434A6090F82410490706D501684A680D
:102AC000036B22F480221A434A6090F8241009070D
:102AD00006D501684A68436B22F400421A434A60F3
:102AE00090F82410C90606D501688A68836B22F421
:102AF00080521A438A6090F82410890606D501682E
:102B00008A68C36B22F400521A438A6090F824103A
:102B1000490611D501684A68036C22F480121A43F1
:102B20004A60016CB1F5801F06D101684A68436CA8
:102B300022F4C0021A434A6090F82410090606D510
:102B400001684A68806C22F4002202434A607047A0
:102B5000F8B500260446C0F88060FEF72DF905465A
:102B6000206800686FF07E47000708D52B460022DA
:102B70004FF400112046009700F02AF960B9206850
:102B8000006840070AD52B4600224FF480012046FA
:102B9000009700F01DF908B10320F8BD2020A067C0
:102BA000E067266684F874600020F8BD10B5806A7E
:102BB0000021A0F85A10A0F85210FFF79BF910BDA1
:102BC00001680A6822F490720A6001688A6822F03B
:102BD00001028A60016E012904D101680A6822F0AD
:102BE00010020A602021C16700210166416670471A
:102BF0002DE9F041044600682269A168E6691143A5
:102C000062690025324311436A4B02686A4E3240C2
:102C10000A43026020684168E26821F44051114390
:102C200041602168A069994201D0226A10438A68F4
:102C300022F4306202438A606049276860488F420C
:102C40000DD1D0F8880010F0030006D0012838D04C
:102C5000022834D0032821D135E001211FE0594951
:102C60008F420BD1D0F8880010F00C0025D004283A
:102C700027D0082823D00C2810D124E09F420DD162
:102C8000D0F8880010F4406017D0B0F5806F18D0ED
:102C9000B0F5006F13D0B0F5406F14D010214A4842
:102CA00000264FF400429F422DD171B1022912D06B
:102CB00004290DD0082971D123E00021EFE702217A
:102CC000EDE70421EBE70821E9E7FEF7D1FD01E09C
:102CD000FEF7F2FDE8B3626802EB420181425DD883
:102CE000B0EB023F5AD8010E030250081818714188
:102CF0000023FDF769FA354AA0F54071914251D998
:102D00004CE01046E7E7E3694FF6EF77934229D1AD
:102D1000092943D2DFE801F005080E420B42424286
:102D20002400FEF7A5FD04E0FEF7B4FD01E0FEF788
:102D3000C3FD70B14100606801EB5001B1FBF0F0E0
:102D400080B2A0F11001B94228D84FF6F0710140CD
:102D500000E029E0C0F3420001432068C16023E0A5
:102D60001046E7E7092919D2DFE801F005080E1837
:102D70000B1818181A00FEF77BFD04E0FEF78AFD19
:102D800001E0FEF799FD78B1616800EB5100B0FBFE
:102D9000F1F080B2A0F11001B94203D9012503E09E
:102DA0001046F1E72168C86066662846A666BDE859
:102DB000F081000000800040F369FFEF003801401F
:102DC00000100240004400400024F400FFFC0F000B
:102DD0002DE9F0479A4617460E4604464FF0000983
:102DE0004FF02008089D39E0681C37D0FDF7E4FF5C
:102DF000A0EB0A00A84222D80DB320680168490759
:102E00002CD5C069C043000528D421684FF4006068
:102E100008622068016821F4D0710160206881682F
:102E200021F001018160C4F87880C4F87C80C4F886
:102E3000808000BF84F874900320BDE8F08720688C
:102E4000016821F4D07101602068816821F00101DE
:102E50008160C4F87880C4F87C80EBE72068C069A2
:102E600036EA000004D00020B842BDD00020E4E7DC
:102E70000120F9E70148FFF73FB800008C0000206F
:102E8000FEE70000014A024901F028BA294400087F
:102E90003000002003B401984100009850EAC1209E
:102EA00018BF04204A0D18BF40F0010040F2FF7225
:102EB000B2EB515F08BF40F00200012808BF0520B7
:102EC00002B070470907090E002804DB00F1E0207A
:102ED00080F80014704700F00F0000F1E02080F847
:102EE000141D70470000000070B5D94B00242DED73
:102EF000020B2DED108BDDE91010984205DA20F061
:102F000000429A4201D809D141B19DED100B00F069
:102F1000CDB902B0BDE8704001F046B9B0F5801FF0
:102F200026DA11430BD0002813DA012001F090F9C2
:102F300000F0C2B902B0BDE8704001F049B902200A
:102F400001F086F901F018F951EC100B81F0004105
:102F50009EE06FF035049FEDC00B53EC102B9DED00
:102F6000100B51EC100BFDF724FACDE910010846C7
:102F700004EB2051C0F31304B948A1F2FF312044FF
:102F800000F4801080F07F6282F04052224301EB17
:102F900020559FEDB50B119253EC102B9DED100BAE
:102FA00051EC100BFDF7F7F941EC180BA01CC0F326
:102FB00013009FEDAFDB9FEDB0EBB14E7E440328D5
:102FC0006CD296ED000B51EC180B53EC102BFDF767
:102FD0004BFC1DD1002D01BF96ED000BBDEC108BFD
:102FE00002B070BD2846FDF759FA41EC180B53ECBE
:102FF0001D2BFDF7DEF941EC190B53EC1E2B51ECA8
:10300000180BFDF7D6F953EC192BFDF723F93FE028
:103010009FED9D0B51EC180B53EC102BFDF7C9F9EC
:103020009FED9B1B53EC112BFDF7B8F941EC190BED
:1030300053EC182B51EC180BFDF7BBF953EC192B83
:10304000FDF7B7F941EC190B002D04BF53EC192B18
:1030500051EC180B1AD02846FDF720FA41EC1A0B58
:1030600053EC1D2BFDF7A5F953EC192BFDF796F941
:1030700053EC182BFDF78FF941EC180B53EC1E2B7A
:1030800051EC1A0BFDF795F953EC182BFDF783F96A
:1030900000F018B902B041EC100B70BD9FED7E0B33
:1030A00051EC180B53EC102BFDF7D4F841EC100B3E
:1030B00051EC180B53EC102BFDF7D4FA41EC190B23
:1030C0002846FDF7EBF941EC1B0B53EC192B51ECA7
:1030D000190BFDF76EF941EC1A0B714853EC1A2BE2
:1030E000261851EC1A0BFDF764F941EC1F0B6D48E3
:1030F000C4F1510404F5D724B0EE4F0AF0EE6F0A84
:103100000321784400F0BCFF53EC1F2B51EC100B53
:10311000FDF74FF941EC1C0B6348B0EE4F0AF0EE9F
:103120006F0A0421784400F0ABFF53EC1A2B51ECEA
:10313000100BFDF73EF9344353EC1C2BFDF78AF8D6
:1031400041EC1C0B002C4CDD9FED510B51EC180B8E
:1031500053EC102BFDF72DF953EC182BFDF729F943
:1031600041EC1A0B55B353EC1D2B51EC1B0BFDF727
:1031700020F941EC1D0B53EC1C2B51EC1A0BFDF705
:1031800069F853EC192BFDF714F953EC1D2BFDF7DF
:1031900061F853EC1A2BFDF701F953EC182BFDF7EE
:1031A000FAF841EC180B53EC1E2B51EC1B0BFDF7FE
:1031B00000F953EC182BFDF7EEF869E753EC1C2BE4
:1031C00051EC1A0BFDF746F853EC192BFDF7F1F80B
:1031D00053EC1A2BFDF7E2F853EC182BFDF7DEF851
:1031E00056E735B353EC1D2B51EC1B0BFDF7E1F803
:1031F00041EC1A0B53EC1C2B51EC180BFDF7CBF8E0
:1032000053EC192BFDF7D5F853EC1A2BFDF7C3F847
:1032100053EC182BFDF7BFF841EC180B53EC1E2BA9
:1032200051EC1B0BFDF7C5F853EC182BFDF7B3F869
:103230002EE753EC1C2B51EC180BFDF7ACF853ECBC
:10324000192BFDF7B6F853EC182BFDF7A7F81FE77D
:103250000000F07F0000000000000000000050436C
:10326000645F090000000000000000000000F03F63
:10327000763C7935EF39EA3D0000E0FE422EE63F2C
:103280000818000000000000555555555555D53F0C
:10329000000000000000E03F0000000000000040CF
:1032A00086EBF9FF8A16000080160000BDEC088B43
:1032B000BDEC08CBFFF72DBEBDEC088BBDEC08CBF9
:1032C000FFF738BEBDEC088BBDEC08CBFFF7E2BEC4
:1032D00070B5414A00252DED020B2DED048BDDE983
:1032E0000404944205DA24F00041914201D809D146
:1032F00040B19DED040BBDEC048B02B0BDE8704005
:1033000000F052BFB4F5801F26DA08430BD0002C22
:1033100013DA012000F09CFFBDEC048B02B0BDE885
:10332000704000F055BF022000F092FF00F024FF33
:1033300051EC100B81F0004146E09FED290B6FF03E
:10334000350553EC102B9DED040B51EC100BFDF7E4
:1033500030F8CDE904010C4605EB2450A0F2FF3013
:10336000C10F40F2FF32521A62F31F540844FDF7B6
:1033700095F805949DED040B41EC180B51EC100BE6
:1033800001F062F89FED181B53EC112BFDF711F8BB
:103390009FED170B41EC190B53EC102B51EC180B54
:1033A000FDF707F853EC192BFCF754FF9FED120BB8
:1033B00041EC190B53EC102B51EC180BFCF7F9FFF7
:1033C00053EC192BFCF746FFBDEC048B02B041EC2B
:1033D000100B70BD000000000000F07F0000000036
:1033E00000000000000050430EE526157BCBDB3FBC
:1033F000362BF111F3FE593D00609F501344D33F2B
:103400002DE9F04D2DED040B2DED0E8B96B0DDE981
:103410002550279CDDF890A025F0004624F00048B8
:10342000BAF1000F14BF0121002101EB4502FC4954
:1034300053184A1093422AD3002814BF01230023B3
:1034400003EB44030B44F7498B4220D358EA0001B5
:103450009FEDF59B76D0DFF8D8B35D4503D1BAF187
:10346000000F05D188E0BAF1000F08BF002100D09D
:10347000012101EB450111F5001F08D8002814BFF8
:103480000121002101EB440111F5001F0BD99DED35
:10349000261B9DED240B16B000F0DABD04B0BDE88C
:1034A000F04D00F08BBE0027002DBCBFE1498845E0
:1034B00021DAE1498845A8BF02271CDAC3451ADC96
:1034C000DE4901EB2851142908DDC1F1340220FA4C
:1034D00002F101FA02F282420DD108E058B9C1F1BD
:1034E000140228FA02F101FA02F2424503D101F076
:1034F0000101C1F1020756EA0A0124D1002C22DAA7
:10350000002D18BF022F01D0012F0AD0022000F099
:103510009FFE16B000F0A2BD04B0BDE8F04D00F073
:103520002BBE022000F094FE00F026FE51EC100BA2
:1035300081F0004141EC100B16B000F095BD04B0D5
:10354000BDE8F08D18E09FEDBEAB9FEDBF8B00286E
:1035500071D1B848804522D105F1804010F5801026
:1035600008BFBAF1000F07D0B3450ADC002CA8BF92
:103570009DED260BE0DA0DE0B0EE490AF0EE690AA7
:10358000DAE7002C06DA9DED260B51EC100B81F0EA
:1035900000416FE0AE48784490ED000BCCE7D84591
:1035A0004DD1002C48DA2EB186423AD1BAF1000F43
:1035B00042D126E0BAF1000F13D0022000F048FEFD
:1035C00000F016FE8DED020B9DED240B8DED000B32
:1035D00010EE900A039961F31E0003909DED020B1B
:1035E000AAE78DED02AB9DED240B1AEE901A10EEBA
:1035F000900A8DED000B61F31E0003909DED020B10
:103600009AE78DED028B9DED240B18EE901A10EECB
:10361000900A8DED000B61F31E0003909DED020BEF
:103620008AE709DA9DED240B51EC190B53EC102BB2
:10363000FDF718F81EE020E09DED240B7CE78642A4
:103640001BDAB4F1804F0DD0A4F10050B0F1FF505F
:1036500013D1002D11DB9DED240B51EC100B00F06C
:10366000E7FF07E09DED240B53EC102B51EC100B02
:1036700000F0C2BC41EC100B5EE79DED240B51EC59
:10368000100B00F0C5FEBAF1000FCDE90E0142D1DA
:103690009FED710B46B3A6F1E040B0F17F600CD016
:1036A0005E4538D1002D00DAA7B3022F0CBF0120F0
:1036B0004FF0FF30FCF7F2FEDCE7002D01DD002CBF
:1036C0000DDA002D01DD002C1FDB002D16DA002C99
:1036D00014DB012F08BF9FED620B3FF42DAFB0EE5E
:1036E0004A0AF0EE6A0A27E7022F18BF002D0CD015
:1036F000012F0AD1002DFFF61FAF06E0002DB8BF45
:10370000002C08DA012F3FF417AFB0EE480AF0EEB4
:10371000680A11E71BE0012000EBE57050EA0701A1
:1037200015D0791EB0EE498AF0EE698A084308BFC9
:103730009FED4D8B4E480025804570DD4D494E482C
:10374000884514DDB0420DDB002C19DB2FE0012091
:1037500000F07EFD16B000F08DBC04B0BDE8F04D69
:1037600000F036BDB34502DC002C09DC1FE08642C8
:1037700002DA002C1BDA03E05E452BDD002C16DD9F
:10378000022000F065FD00F033FD8DED020B53ECDF
:103790001A2B51EC180BFCF70CFECDE90001039934
:1037A000019861F31E0003909DED020BC4E6022018
:1037B00000F04EFD00F02CFD10EE901A18EE900A6D
:1037C0008DED020B8DED008B61F31E0003909DEDDE
:1037D000020BB1E69DED0E0B53EC192B51EC100BC7
:1037E000FCF7D9FD9FED260BCDE9080153EC102B1A
:1037F0009DED080B51EC100BFCF7DBFD9FED221B40
:1038000053EC112BFCF7CAFD9DED081B53EC112B5B
:10381000FCF7CFFD9FED1E1B53EC112B3CE08CE021
:10382000FFFF1F00FFFF0F00000000000000F03F3F
:103830000000F03F0000F07F0000404301FCFFFF6C
:10384000000000000000F07F000000000000000009
:103850002E120000000000000000000000000080A8
:10386000000000000000F0FF000000000000F0BFBA
:103870000000E0410000F043FFFFEF3F00000000C8
:10388000000000000000D03F555555555555D53F17
:10389000000000000000E03FFCF780FD9DED080BFC
:1038A00041EC1A0B53EC102B51EC100BFCF781FD83
:1038B00053EC1A2BFCF77DFD41EC1A0B9FEDFE0B30
:1038C00053EC102B9DED080B51EC100BFCF771FD28
:1038D00041EC1B0B9FEDFA0B51EC1A0B53EC102B28
:1038E000FCF767FD41EC1A0B9FEDF70B53EC102B27
:1038F0009DED080B51EC100BFCF75BFD53EC1A2B04
:10390000FCF749FD41EC1A0B51EC1B0B53EC1A2B45
:10391000FCF7A0FC0690CDE906519DED060B53EC9B
:103920001B2B51EC100BFCF736FD53EC1A2BFCF75C
:1039300035FD41EC100B00F0A1B90020B6F5801F59
:103940000EDA9FEDE30B53EC102B9DED0E0B51ECBB
:10395000100BFCF72EFDCDE90E016FF034000E4682
:1039600000EB2650A0F2FF37C6F31300DA4940F00F
:103970007F6646F040568842D8BF002408DDD7490C
:103980008142C8BF012403DC0024A6F580167F1CF9
:10399000D348784400EBC4000F9690ED00CB9DED2A
:1039A0000E0B53EC1C2B51EC100BFCF7F4FC9DEDB3
:1039B0000E0B41EC1B0B53EC1C2B51EC100BFCF7CA
:1039C00049FC41EC100B51EC190B53EC102BFCF79C
:1039D00049FE41EC1D0B51EC1B0B53EC1D2BFCF76E
:1039E000E8FC41EC1A0BBF488DED10AB7844109504
:1039F00090ED000B4FF0005040EA660000EB844071
:103A00008DED080B00F5002009909DED080B53EC9F
:103A10001C2B51EC100BFCF7BEFC9DED0E1B53EC68
:103A2000112BFCF7BBFC41EC100B53EC102B9DED64
:103A3000100B51EC100BFCF7BCFC9DED080B41EC9E
:103A40001C0B53EC102B9DED100B51EC100BFCF7E5
:103A5000B0FC53EC1B2BFCF7A1FC53EC1C2BFCF72C
:103A60009AFC53EC1D2BFCF7A4FC41EC1C0B53EC13
:103A70001A2B51EC1A0BFCF79CFC41EC1B0B9A48DF
:103A80000621B0EE4B0AF0EE6B0A784400F0F8FA2B
:103A9000B0EE401AF0EE601AB0EE41DAF0EE61DA04
:103AA00053EC1B2B51EC1B0BFCF783FC53EC1D2B35
:103AB000FCF77FFC9DED100B41EC1B0B53EC1A2B1C
:103AC00051EC100BFCF7C6FB53EC1C2BFCF771FC04
:103AD00053EC1B2BFCF7BEFB9DED100B41EC1B0BBD
:103AE00053EC102B51EC100BFCF763FC41EC1D0B5D
:103AF0009FED7FEB53EC1E2BFCF7ACFB53EC1B2B29
:103B0000FCF7A8FB0890CDE908519DED080B53EC9C
:103B10001E2B51EC100BFCF73EFC53EC1D2BFCF75D
:103B20003AFC53EC1B2BFCF739FC9DED080B41ECE8
:103B30001D0B53EC102B9DED100B51EC100BFCF7F3
:103B400038FC41EC1B0B53EC1A2B51EC1D0BFCF712
:103B500030FC9DED080B41EC1A0B53EC102B51EC93
:103B60001C0BFCF726FC53EC1A2BFCF773FB41EC07
:103B70001A0B51EC1B0B53EC1A2BFCF76BFB0C9044
:103B8000CDE90C519DED0C0B53EC1B2B51EC100BA4
:103B9000FCF701FC53EC1A2BFCF700FC41EC1B0B6F
:103BA0009FED550B53EC102B9DED0C0B51EC100BB6
:103BB000FCF7FFFB41EC1A0B9FED510B51EC1B0B7B
:103BC00053EC102BFCF7F5FB41EC1B0B9FED4E0B60
:103BD00053EC102B9DED0C0B51EC100BFCF7E9FB9B
:103BE00053EC1B2BFCF736FB41EC100B4848784498
:103BF00000EBC40090ED001B51EC100B53EC112BAB
:103C0000FCF728FB41EC1B0B3846FCF747FCCDE9E1
:103C1000080153EC1B2B51EC1A0BFCF71BFB41EC7E
:103C2000100B3C48784400EBC40090ED00CB51EC05
:103C3000100B53EC1C2BFCF70DFB9DED081B53ECFC
:103C4000112BFCF707FB0690CDE906519DED080B03
:103C500053EC102B9DED060B51EC100BFCF79BFB6E
:103C600053EC1C2BFCF797FB53EC1A2BFCF793FB44
:103C700053EC1B2BFCF792FB41EC100B9DED261B2C
:103C800053EC102B8DED001B00959DED260B51EC98
:103C9000100BFCF78EFB9DED000B41EC1A0B53EC67
:103CA000102B9DED260B51EC100BFCF774FB9DEDDA
:103CB000061B53EC112B2FE0000000604715F73F67
:103CC000FE822B654715F73F44DF5DF80BAE543E8F
:103CD00000000000000040438E9803007AB60B00FD
:103CE000720D0000D80D0000AA0C000000000000BA
:103CF0000000000000000840000000E009C7EE3F9F
:103D0000FD033ADC09C7EE3FF5015B14E02F3EBE30
:103D1000360B0000F00A0000FCF74BFB53EC1A2BAB
:103D2000FCF798FA9DED060B41EC1A0B53EC102BA7
:103D30009DED000B51EC100BFCF73BFBCDE90C01AA
:103D40009DED0C0B51EC1A0B53EC102BFCF782FA87
:103D5000CDE902010C46AA498C422FDB611A0843C7
:103D600018D19DED0C0B53EC102B9DED020B51EC7B
:103D7000100BFCF710FB41EC1B0B9FEDA30B51EC60
:103D80001A0B53EC102BFCF765FA53EC1B2BFCF7CA
:103D9000EFFC2DD2022000F05BFA00F029FA10EEC1
:103DA000901A18EE900A8DED020B8DED008B61F3E9
:103DB0001E0003909DED020BFFF7BEBB944A24F05A
:103DC0000041914214D39349214408437FF4EFAC5E
:103DD0009DED0C0B53EC102B9DED020B51EC100BD9
:103DE000FCF7D9FA53EC1A2BFCF7C2FC7FF6DFACD8
:103DF00024F000408849894A002601EB2051824284
:103E00002BDA481C4FF4801121FA00F02044844A38
:103E1000C0F30A517A44A1F2FF3192ED000B814ABE
:103E20008DED080BCA4020EA0202C0F3130040F4F3
:103E30008010C1F1140120FA01F60992002CB8BFDC
:103E400076429DED080B53EC102B9DED0C0B51ECC5
:103E5000100BFCF7A0FACDE90C019DED0C0B51EC19
:103E60001A0B53EC102BFCF7F5F99FED6F0B089034
:103E7000CDE9085153EC102B9DED080B51EC100BC4
:103E8000FCF797FA41EC1B0B9FED690B53EC102BE1
:103E90009DED080B51EC100BFCF78BFA9DED0C0B14
:103EA00041EC1C0B53EC102B9DED080B51EC100B4F
:103EB000FCF771FA53EC1A2BFCF770FA9FED5E1BBE
:103EC00053EC112BFCF775FA53EC1C2BFCF7C2F9E1
:103ED00041EC1A0B51EC1B0B53EC1A2BFCF7BAF903
:103EE000CDE902019DED020B53EC1B2B51EC100BA5
:103EF000FCF751FA53EC1A2BFCF750FA9DED020B2C
:103F000041EC1A0B53EC102B51EC100BFCF751FA4F
:103F1000CDE908014A489DED080B0521784400F0E1
:103F2000AFF89DED081B51EC100B53EC112BFCF777
:103F300040FA9DED021B53EC112BFCF72FFACDE953
:103F400006019DED020B53EC1A2B51EC100BFCF704
:103F500030FA53EC1A2BFCF77DF99FED3B0B41EC4B
:103F60001A0B53EC102B9DED060B51EC100BFCF7CC
:103F700012FA9DED060B41EC1B0B53EC102B9DED43
:103F8000020B51EC100BFCF714FA53EC1B2BFCF753
:103F900069FB53EC1A2BFCF7FEF99DED021B53EC69
:103FA000112BFCF7F8F953EC192BFCF7F7F9CDE9D5
:103FB000020101EB065001150029C8BF039015DC72
:103FC0009DED020B324651EC100BFCF7BAFBFEF7ED
:103FD00061FF042808BF00F01BF932469DED020B7B
:103FE00051EC100BFCF7ADFBCDE902019DED020B8E
:103FF00051EC180B53EC102BFCF7DBF9FFF73ABB35
:104000000000904000000000FE822B654715973CA1
:1040100000CC904000346F3F01FCFFFF0000E03F08
:10402000B0090000FFFF0F0000000000432EE63F34
:10403000396CA80C615C20BEEF39FAFE422EE63FD7
:1040400048080000000000000000000000000040E0
:10405000BDEC088BBDEC06CBFFF720BABDEC088B9E
:10406000BDEC06CBFFF758BABDEC088BBDEC06CB18
:10407000FFF765BABDEC088BBDEC06CBFFF76DBB57
:1040800070B504462DED028B4D1E00EBC500B0EE61
:10409000408AF0EE608A90ED000B35F0060017D0F4
:1040A00053EC182B51EC100BFCF783F941EC100B7F
:1040B0006D1E04EBC50090ED001B51EC100B53EC92
:1040C000112BFCF7C7F841EC100B35F00600E7D1D7
:1040D000022D36D0042D1CD0062D1CBFBDEC028B4A
:1040E00070BD53EC182B51EC100BFCF762F994EDFA
:1040F0000A1B53EC112BFCF7ADF853EC182BFCF713
:1041000058F994ED081B53EC112BFCF7A3F841EC84
:10411000100B53EC182B51EC100BFCF74AF994EDF3
:10412000061B53EC112BFCF795F853EC182BFCF7FE
:1041300040F994ED040B53EC102BFCF78BF841EC99
:10414000100B53EC182B51EC100BFCF732F994EDDB
:10415000021B53EC112BFCF77DF853EC182BFCF7EA
:1041600028F994ED001B53EC112BFCF773F8BDEC10
:10417000028B41EC100B70BD9FED070B10B553EC9B
:10418000102B9FED070B51EC100BFCF76BFA41EC79
:10419000100B10BD00000000000000000000000037
:1041A000000000000000F03F10B553EC102B51EC64
:1041B000100BFCF74FF841EC100B10BD10B553EC91
:1041C000112B51EC100BFCF745F841EC100B10BD16
:1041D0009FED050B10B553EC102B51EC100BFCF7B9
:1041E00041FA41EC100B10BD00000000000000007F
:1041F0009FED050B10B553EC102B51EC100BFCF799
:10420000D8F841EC100B10BD000000000000007059
:104210009FED050B10B553EC102B51EC100BFCF778
:10422000C8F841EC100B10BD0000000000000010A9
:1042300002E008C8121F08C1002AFAD1704770476F
:10424000002001E001C1121F002AFBD170470000CD
:1042500001490860704700003C0000202DE9F04152
:10426000054600886B885B1E984204D1BDE8F0418A
:1042700014A0FEF707BE6B6803EBC003401C288048
:10428000C3E900122C88641E07E0686800EBC701D0
:1042900000EBC40000F003FA7410002C0FD0611E74
:1042A00001EBD1766868771000EBC70100EBC40022
:1042B000D1E9002303C800F022F80028E5D1BDE8C9
:1042C000F08100004552524F5221205175657565AD
:1042D0002069732066756C6C000000002DE9F041C8
:1042E00016460F460446002503E03946B047641CD5
:1042F0006D1C20780028F8D12846BDE8F081080C14
:104300001A0C904205D306D14FEA0140B0EB034F9F
:1043100001D20120704700207047000000EE101A03
:10432000DFED0A0A4FF07E52B8EE400A02E000BF0D
:1043300020EE200A10EE101A9142F9DC00EE900AED
:10434000F8EE600A30EE800A70470000CDCCCC3D1C
:10435000F0B5002206240CE0466804EBC205735B4E
:104360008B4201D90F4600E01F46DB1B521C7353E2
:10437000D2B203889342EFD8F0BD000070B5044676
:1043800010480A460988D0E90056B1B150686FF06C
:10439000070303EBC1010144D0E90056D1E9003124
:1043A000C0E9003110880021401E1080104600F046
:1043B000D7F800BFC4E9005670BD03A0FEF762FD48
:1043C000F8E70000B44600084552524F52212064DD
:1043D0006571756575696E672066726F6D20456DD4
:1043E00070747920517565756500000082B0009188
:1043F000ADF80420ADF806300099BDF8043063F341
:104400000F02BDF8063002B063F31F42FFF726BF6C
:1044100082B0CDE9000121F0004001909DED000B3C
:1044200002B051EC100B704738B504468DF800000F
:1044300069460320ABBE204638BD092801D830307C
:1044400000E03730C0B2704710B541EC100BFEF7FA
:104450004BFD51EC100B10BD1CB5FCF75FFFFEF7D8
:10446000ABFAFEF7D7F8FEF735F9FEF709F9102198
:104470001A4800F0C1F819481021083000F0BCF8C3
:1044800001211748FEF746F902211648FEF742F9C6
:10449000124E4FF0FF370025A6F10C0420780028BB
:1044A000FCD061880D480830FFF752FF0B4901F13D
:1044B000080000F08BF86580308830B10749684605
:1044C000FFF75CFF0098804705E03B46072206A106
:1044D0000748FDF71DFF2570E0E700000C000020F5
:1044E000CD280008D108000849444C450D0A0000B9
:1044F0008C000020F0B50B30154D20F00701002492
:10450000144A0FE003688B420BD38B4205D95E1A25
:1045100043184768C3E9006700E04368136002C0BE
:1045200004E0021D10680028ECD12046002802D1CA
:10453000286808B10020F0BD064A07481060074A05
:10454000121A22F00702C0E9002401202860D7E7F0
:104550003800002034000020140100201003002047
:104560002DE9F04106460D46012000EB45070220EB
:1045700000EB450830880C46B8420BDB706800EB56
:10458000C40100EBC700D1E9002303C8FFF7B7FE61
:1045900000B13C46318841450BDB706800EBC4013B
:1045A00000EBC800D1E9002303C8FFF7A8FE00B163
:1045B0004446AC4208D0706800EBC50100EBC40073
:1045C00000F06DF82146CEE7BDE8F0817CB50D46E0
:1045D000044608E021466846FFF7D0FEDDE90012F8
:1045E0002846FFF73BFE2088002803D06068C0887B
:1045F0000028EFD07CBD000070B50446002020806C
:104600006180C800FFF776FF60600020074908E07E
:104610006268D1E9003502EBC002401CC2E90035F6
:1046200080B262888242F3D870BD0000B4460008B0
:1046300000B52DED048B83B041EC190BFCF7C2F8EB
:1046400041EC180B18EE100A18EE901A8DED008B45
:10465000002818BF0120084320F00040C0F17F600F
:1046600000F1E040C00F14D019EE101A19EE900AB4
:104670008DED009B002918BF0121084320F0004068
:10468000C0F17F6000F1E040C00F04BF0120FFF7E0
:10469000DFFD51EC180B03B0BDEC048B00BD30B551
:1046A000D0E90023D1E90045C0E90045C1E9002374
:1046B00030BD000000000000FFFFFFFF0000000011
:1046C000000000000102030406070809A08601009B
:1046D000400D0300801A060000350C0040420F0018
:1046E00080841E0000093D0000127A000024F400BE
:1046F00000366E010048E801006CDC02000000009A
:104700000102030400000000000000000000F03F70
:10471000000000000000F83F000000000000000062
:104720000000004003B8E23F00000000000000006D
:1047300006D0CF43EBFD4C3E033333333333E33FFB
:10474000FFAB6FDBB66DDB3F4D268F515555D53F27
:1047500001411DA96074D13F65DBC9934A86CD3FF5
:10476000EF4E454A287ECA3F3E5555555555C53FE3
:1047700093BDBE166CC166BF2CDE25AF6A56113FD5
:10478000F16BD2C541BDBBBED0A4BE726937663ED7
:1047900004FA97999999D93FAF788E1DC571CC3F8E
:1047A0009FC678D0099AC33F935555555555E53F57
:1047B000599322942449D23FDE03CB966446C73FE7
:1047C00044523EDF12F1C23F000000000000000032
:1047D000F0470008000000204000000030420008C0
:1047E0003048000840000020D00600004042000889
:1047F000000000000000000003D9000000000000DD
:1048000000000000000000000000000000000000A8
:1048100001000000100000000000000000093D0041
:104820000000000000000000000000000000000088
:040000050800018D61
:00000001FF
